{
  "contractName": "Migrations",
  "abi": [
    {
      "inputs": [],
      "name": "last_completed_migration",
      "outputs": [
        {
          "internalType": "uint256",
          "name": "",
          "type": "uint256"
        }
      ],
      "stateMutability": "view",
      "type": "function",
      "constant": true
    },
    {
      "inputs": [],
      "name": "owner",
      "outputs": [
        {
          "internalType": "address",
          "name": "",
          "type": "address"
        }
      ],
      "stateMutability": "view",
      "type": "function",
      "constant": true
    },
    {
      "inputs": [
        {
          "internalType": "uint256",
          "name": "completed",
          "type": "uint256"
        }
      ],
      "name": "setCompleted",
      "outputs": [],
      "stateMutability": "nonpayable",
      "type": "function"
    },
    {
      "inputs": [
        {
          "internalType": "address",
          "name": "newOwner",
          "type": "address"
        }
      ],
      "name": "changeOwner",
      "outputs": [],
      "stateMutability": "nonpayable",
      "type": "function"
    }
  ],
  "bytecode": "0x6080604052336000806101000a81548173ffffffffffffffffffffffffffffffffffffffff021916908373ffffffffffffffffffffffffffffffffffffffff16021790555034801561005057600080fd5b506103eb806100606000396000f3fe608060405234801561001057600080fd5b506004361061004c5760003560e01c8063445df0ac146100515780638da5cb5b1461006f578063a6f9dae1146100a3578063fdacd576146100e7575b600080fd5b610059610115565b6040518082815260200191505060405180910390f35b61007761011b565b604051808273ffffffffffffffffffffffffffffffffffffffff16815260200191505060405180910390f35b6100e5600480360360208110156100b957600080fd5b81019080803573ffffffffffffffffffffffffffffffffffffffff16906020019092919050505061013f565b005b610113600480360360208110156100fd57600080fd5b81019080803590602001909291905050506102ac565b005b60015481565b60008054906101000a900473ffffffffffffffffffffffffffffffffffffffff1681565b60008054906101000a900473ffffffffffffffffffffffffffffffffffffffff1673ffffffffffffffffffffffffffffffffffffffff163373ffffffffffffffffffffffffffffffffffffffff16146101e3576040517f08c379a00000000000000000000000000000000000000000000000000000000081526004018080602001828103825260338152602001806103836033913960400191505060405180910390fd5b600073ffffffffffffffffffffffffffffffffffffffff168173ffffffffffffffffffffffffffffffffffffffff161415610269576040517f08c379a000000000000000000000000000000000000000000000000000000000815260040180806020018281038252602881526020018061035b6028913960400191505060405180910390fd5b806000806101000a81548173ffffffffffffffffffffffffffffffffffffffff021916908373ffffffffffffffffffffffffffffffffffffffff16021790555050565b60008054906101000a900473ffffffffffffffffffffffffffffffffffffffff1673ffffffffffffffffffffffffffffffffffffffff163373ffffffffffffffffffffffffffffffffffffffff1614610350576040517f08c379a00000000000000000000000000000000000000000000000000000000081526004018080602001828103825260338152602001806103836033913960400191505060405180910390fd5b806001819055505056fe4d6967726174696f6e3a206e6577206f776e657220697320746865207a65726f2061646472657373546869732066756e6374696f6e206973207265737472696374656420746f2074686520636f6e74726163742773206f776e6572a2646970667358221220d6479379b1e6b7a01a9ac09c91f8a7d25b1dc6bd379c3c548c7c4cac8fd2c13464736f6c63430007060033",
  "immutableReferences": {},
  "source": "// SPDX-License-Identifier: MIT\npragma solidity >=0.4.22 <0.9.0;\n\ncontract Migrations {\n  address public owner = msg.sender;\n  uint public last_completed_migration;\n\n  modifier restricted() {\n    require(\n      msg.sender == owner,\n      \"This function is restricted to the contract's owner\"\n    );\n    _;\n  }\n\n  function setCompleted(uint completed) public restricted {\n    last_completed_migration = completed;\n  }\n\n  function changeOwner(address newOwner) public restricted {\n    require(newOwner != address(0), \"Migration: new owner is the zero address\");\n    owner = newOwner;\n  }\n}\n",
  "sourcePath": "/Users/hieptran/Documents/Projects/nami/namismartcontractv2/contracts/Migrations.sol",
  "compiler": {
    "name": "solc",
    "version": "0.7.6+commit.7338295f.Emscripten.clang"
  },
  "schemaVersion": "3.3.3",
  "updatedAt": "2021-01-21T00:03:37.714Z",
  "networkType": "ethereum",
  "devdoc": {
    "kind": "dev",
    "methods": {},
    "version": 1
  },
  "userdoc": {
    "kind": "user",
    "methods": {},
    "version": 1
  }
}