{
  "contractName": "NamiCorporationTokenUpgradeable",
  "abi": [
    {
      "anonymous": false,
      "inputs": [
        {
          "indexed": true,
          "internalType": "address",
          "name": "owner",
          "type": "address"
        },
        {
          "indexed": true,
          "internalType": "address",
          "name": "spender",
          "type": "address"
        },
        {
          "indexed": false,
          "internalType": "uint256",
          "name": "value",
          "type": "uint256"
        }
      ],
      "name": "Approval",
      "type": "event"
    },
    {
      "anonymous": false,
      "inputs": [
        {
          "indexed": false,
          "internalType": "address",
          "name": "account",
          "type": "address"
        },
        {
          "indexed": true,
          "internalType": "address",
          "name": "sender",
          "type": "address"
        }
      ],
      "name": "BlacklistAdded",
      "type": "event"
    },
    {
      "anonymous": false,
      "inputs": [
        {
          "indexed": false,
          "internalType": "address",
          "name": "account",
          "type": "address"
        },
        {
          "indexed": true,
          "internalType": "address",
          "name": "sender",
          "type": "address"
        }
      ],
      "name": "BlacklistRemoved",
      "type": "event"
    },
    {
      "anonymous": false,
      "inputs": [
        {
          "indexed": false,
          "internalType": "address",
          "name": "account",
          "type": "address"
        }
      ],
      "name": "Paused",
      "type": "event"
    },
    {
      "anonymous": false,
      "inputs": [
        {
          "indexed": true,
          "internalType": "bytes32",
          "name": "role",
          "type": "bytes32"
        },
        {
          "indexed": true,
          "internalType": "bytes32",
          "name": "previousAdminRole",
          "type": "bytes32"
        },
        {
          "indexed": true,
          "internalType": "bytes32",
          "name": "newAdminRole",
          "type": "bytes32"
        }
      ],
      "name": "RoleAdminChanged",
      "type": "event"
    },
    {
      "anonymous": false,
      "inputs": [
        {
          "indexed": true,
          "internalType": "bytes32",
          "name": "role",
          "type": "bytes32"
        },
        {
          "indexed": true,
          "internalType": "address",
          "name": "account",
          "type": "address"
        },
        {
          "indexed": true,
          "internalType": "address",
          "name": "sender",
          "type": "address"
        }
      ],
      "name": "RoleGranted",
      "type": "event"
    },
    {
      "anonymous": false,
      "inputs": [
        {
          "indexed": true,
          "internalType": "bytes32",
          "name": "role",
          "type": "bytes32"
        },
        {
          "indexed": true,
          "internalType": "address",
          "name": "account",
          "type": "address"
        },
        {
          "indexed": true,
          "internalType": "address",
          "name": "sender",
          "type": "address"
        }
      ],
      "name": "RoleRevoked",
      "type": "event"
    },
    {
      "anonymous": false,
      "inputs": [
        {
          "indexed": true,
          "internalType": "address",
          "name": "from",
          "type": "address"
        },
        {
          "indexed": true,
          "internalType": "address",
          "name": "to",
          "type": "address"
        },
        {
          "indexed": false,
          "internalType": "uint256",
          "name": "value",
          "type": "uint256"
        }
      ],
      "name": "Transfer",
      "type": "event"
    },
    {
      "anonymous": false,
      "inputs": [
        {
          "indexed": false,
          "internalType": "address",
          "name": "account",
          "type": "address"
        }
      ],
      "name": "Unpaused",
      "type": "event"
    },
    {
      "inputs": [],
      "name": "BLACKLIST_MANAGER_ROLE",
      "outputs": [
        {
          "internalType": "bytes32",
          "name": "",
          "type": "bytes32"
        }
      ],
      "stateMutability": "view",
      "type": "function",
      "constant": true
    },
    {
      "inputs": [],
      "name": "DEFAULT_ADMIN_ROLE",
      "outputs": [
        {
          "internalType": "bytes32",
          "name": "",
          "type": "bytes32"
        }
      ],
      "stateMutability": "view",
      "type": "function",
      "constant": true
    },
    {
      "inputs": [],
      "name": "MINTER_ROLE",
      "outputs": [
        {
          "internalType": "bytes32",
          "name": "",
          "type": "bytes32"
        }
      ],
      "stateMutability": "view",
      "type": "function",
      "constant": true
    },
    {
      "inputs": [],
      "name": "PAUSER_ROLE",
      "outputs": [
        {
          "internalType": "bytes32",
          "name": "",
          "type": "bytes32"
        }
      ],
      "stateMutability": "view",
      "type": "function",
      "constant": true
    },
    {
      "inputs": [
        {
          "internalType": "address",
          "name": "account",
          "type": "address"
        }
      ],
      "name": "addToBlacklist",
      "outputs": [],
      "stateMutability": "nonpayable",
      "type": "function"
    },
    {
      "inputs": [
        {
          "internalType": "address",
          "name": "owner",
          "type": "address"
        },
        {
          "internalType": "address",
          "name": "spender",
          "type": "address"
        }
      ],
      "name": "allowance",
      "outputs": [
        {
          "internalType": "uint256",
          "name": "",
          "type": "uint256"
        }
      ],
      "stateMutability": "view",
      "type": "function",
      "constant": true
    },
    {
      "inputs": [
        {
          "internalType": "address",
          "name": "spender",
          "type": "address"
        },
        {
          "internalType": "uint256",
          "name": "amount",
          "type": "uint256"
        }
      ],
      "name": "approve",
      "outputs": [
        {
          "internalType": "bool",
          "name": "",
          "type": "bool"
        }
      ],
      "stateMutability": "nonpayable",
      "type": "function"
    },
    {
      "inputs": [
        {
          "internalType": "address",
          "name": "account",
          "type": "address"
        }
      ],
      "name": "balanceOf",
      "outputs": [
        {
          "internalType": "uint256",
          "name": "",
          "type": "uint256"
        }
      ],
      "stateMutability": "view",
      "type": "function",
      "constant": true
    },
    {
      "inputs": [
        {
          "internalType": "uint256",
          "name": "amount",
          "type": "uint256"
        }
      ],
      "name": "burn",
      "outputs": [],
      "stateMutability": "nonpayable",
      "type": "function"
    },
    {
      "inputs": [
        {
          "internalType": "address",
          "name": "account",
          "type": "address"
        },
        {
          "internalType": "uint256",
          "name": "amount",
          "type": "uint256"
        }
      ],
      "name": "burnFrom",
      "outputs": [],
      "stateMutability": "nonpayable",
      "type": "function"
    },
    {
      "inputs": [],
      "name": "decimals",
      "outputs": [
        {
          "internalType": "uint8",
          "name": "",
          "type": "uint8"
        }
      ],
      "stateMutability": "view",
      "type": "function",
      "constant": true
    },
    {
      "inputs": [
        {
          "internalType": "address",
          "name": "spender",
          "type": "address"
        },
        {
          "internalType": "uint256",
          "name": "subtractedValue",
          "type": "uint256"
        }
      ],
      "name": "decreaseAllowance",
      "outputs": [
        {
          "internalType": "bool",
          "name": "",
          "type": "bool"
        }
      ],
      "stateMutability": "nonpayable",
      "type": "function"
    },
    {
      "inputs": [
        {
          "internalType": "uint256",
          "name": "index",
          "type": "uint256"
        }
      ],
      "name": "getBlacklistedAddressAt",
      "outputs": [
        {
          "internalType": "address",
          "name": "",
          "type": "address"
        }
      ],
      "stateMutability": "view",
      "type": "function",
      "constant": true
    },
    {
      "inputs": [],
      "name": "getBlacklistedAddressesCount",
      "outputs": [
        {
          "internalType": "uint256",
          "name": "",
          "type": "uint256"
        }
      ],
      "stateMutability": "view",
      "type": "function",
      "constant": true
    },
    {
      "inputs": [
        {
          "internalType": "bytes32",
          "name": "role",
          "type": "bytes32"
        }
      ],
      "name": "getRoleAdmin",
      "outputs": [
        {
          "internalType": "bytes32",
          "name": "",
          "type": "bytes32"
        }
      ],
      "stateMutability": "view",
      "type": "function",
      "constant": true
    },
    {
      "inputs": [
        {
          "internalType": "bytes32",
          "name": "role",
          "type": "bytes32"
        },
        {
          "internalType": "uint256",
          "name": "index",
          "type": "uint256"
        }
      ],
      "name": "getRoleMember",
      "outputs": [
        {
          "internalType": "address",
          "name": "",
          "type": "address"
        }
      ],
      "stateMutability": "view",
      "type": "function",
      "constant": true
    },
    {
      "inputs": [
        {
          "internalType": "bytes32",
          "name": "role",
          "type": "bytes32"
        }
      ],
      "name": "getRoleMemberCount",
      "outputs": [
        {
          "internalType": "uint256",
          "name": "",
          "type": "uint256"
        }
      ],
      "stateMutability": "view",
      "type": "function",
      "constant": true
    },
    {
      "inputs": [
        {
          "internalType": "bytes32",
          "name": "role",
          "type": "bytes32"
        },
        {
          "internalType": "address",
          "name": "account",
          "type": "address"
        }
      ],
      "name": "grantRole",
      "outputs": [],
      "stateMutability": "nonpayable",
      "type": "function"
    },
    {
      "inputs": [
        {
          "internalType": "bytes32",
          "name": "role",
          "type": "bytes32"
        },
        {
          "internalType": "address",
          "name": "account",
          "type": "address"
        }
      ],
      "name": "hasRole",
      "outputs": [
        {
          "internalType": "bool",
          "name": "",
          "type": "bool"
        }
      ],
      "stateMutability": "view",
      "type": "function",
      "constant": true
    },
    {
      "inputs": [
        {
          "internalType": "address",
          "name": "spender",
          "type": "address"
        },
        {
          "internalType": "uint256",
          "name": "addedValue",
          "type": "uint256"
        }
      ],
      "name": "increaseAllowance",
      "outputs": [
        {
          "internalType": "bool",
          "name": "",
          "type": "bool"
        }
      ],
      "stateMutability": "nonpayable",
      "type": "function"
    },
    {
      "inputs": [
        {
          "internalType": "address",
          "name": "account",
          "type": "address"
        }
      ],
      "name": "isBlacklisted",
      "outputs": [
        {
          "internalType": "bool",
          "name": "",
          "type": "bool"
        }
      ],
      "stateMutability": "view",
      "type": "function",
      "constant": true
    },
    {
      "inputs": [],
      "name": "name",
      "outputs": [
        {
          "internalType": "string",
          "name": "",
          "type": "string"
        }
      ],
      "stateMutability": "view",
      "type": "function",
      "constant": true
    },
    {
      "inputs": [],
      "name": "paused",
      "outputs": [
        {
          "internalType": "bool",
          "name": "",
          "type": "bool"
        }
      ],
      "stateMutability": "view",
      "type": "function",
      "constant": true
    },
    {
      "inputs": [
        {
          "internalType": "address",
          "name": "account",
          "type": "address"
        }
      ],
      "name": "removeFromBlacklist",
      "outputs": [],
      "stateMutability": "nonpayable",
      "type": "function"
    },
    {
      "inputs": [
        {
          "internalType": "bytes32",
          "name": "role",
          "type": "bytes32"
        },
        {
          "internalType": "address",
          "name": "account",
          "type": "address"
        }
      ],
      "name": "renounceRole",
      "outputs": [],
      "stateMutability": "nonpayable",
      "type": "function"
    },
    {
      "inputs": [
        {
          "internalType": "bytes32",
          "name": "role",
          "type": "bytes32"
        },
        {
          "internalType": "address",
          "name": "account",
          "type": "address"
        }
      ],
      "name": "revokeRole",
      "outputs": [],
      "stateMutability": "nonpayable",
      "type": "function"
    },
    {
      "inputs": [],
      "name": "symbol",
      "outputs": [
        {
          "internalType": "string",
          "name": "",
          "type": "string"
        }
      ],
      "stateMutability": "view",
      "type": "function",
      "constant": true
    },
    {
      "inputs": [],
      "name": "totalSupply",
      "outputs": [
        {
          "internalType": "uint256",
          "name": "",
          "type": "uint256"
        }
      ],
      "stateMutability": "view",
      "type": "function",
      "constant": true
    },
    {
      "inputs": [
        {
          "internalType": "address",
          "name": "recipient",
          "type": "address"
        },
        {
          "internalType": "uint256",
          "name": "amount",
          "type": "uint256"
        }
      ],
      "name": "transfer",
      "outputs": [
        {
          "internalType": "bool",
          "name": "",
          "type": "bool"
        }
      ],
      "stateMutability": "nonpayable",
      "type": "function"
    },
    {
      "inputs": [
        {
          "internalType": "address",
          "name": "sender",
          "type": "address"
        },
        {
          "internalType": "address",
          "name": "recipient",
          "type": "address"
        },
        {
          "internalType": "uint256",
          "name": "amount",
          "type": "uint256"
        }
      ],
      "name": "transferFrom",
      "outputs": [
        {
          "internalType": "bool",
          "name": "",
          "type": "bool"
        }
      ],
      "stateMutability": "nonpayable",
      "type": "function"
    },
    {
      "inputs": [
        {
          "internalType": "string",
          "name": "name",
          "type": "string"
        },
        {
          "internalType": "string",
          "name": "symbol",
          "type": "string"
        }
      ],
      "name": "initialize",
      "outputs": [],
      "stateMutability": "nonpayable",
      "type": "function"
    },
    {
      "inputs": [
        {
          "internalType": "address",
          "name": "to",
          "type": "address"
        },
        {
          "internalType": "uint256",
          "name": "amount",
          "type": "uint256"
        }
      ],
      "name": "mint",
      "outputs": [],
      "stateMutability": "nonpayable",
      "type": "function"
    },
    {
      "inputs": [],
      "name": "pause",
      "outputs": [],
      "stateMutability": "nonpayable",
      "type": "function"
    },
    {
      "inputs": [],
      "name": "unpause",
      "outputs": [],
      "stateMutability": "nonpayable",
      "type": "function"
    }
  ],
  "bytecode": "0x608060405234801561001057600080fd5b50613a44806100206000396000f3fe608060405234801561001057600080fd5b50600436106102065760003560e01c8063537df3b61161011a578063a217fddf116100ad578063d53913931161007c578063d539139314610b2c578063d547741f14610b4a578063dd62ed3e14610b98578063e63ab1e914610c10578063fe575a8714610c2e57610206565b8063a217fddf14610a04578063a457c2d714610a22578063a9059cbb14610a86578063ca15c87314610aea57610206565b80638456cb59116100e95780638456cb59146108b15780639010d07c146108bb57806391d148541461091d57806395d89b411461098157610206565b8063537df3b6146107a75780635c975abb146107eb57806370a082311461080b57806379cc67901461086357610206565b8063313ce5671161019d57806340c10f191161016c57806340c10f1914610577578063410b2424146105c557806342966c68146105e357806344337ea1146106115780634cd88b761461065557610206565b8063313ce5671461049a57806336568abe146104bb57806339509351146105095780633f4ba83a1461056d57610206565b806323b872dd116101d957806323b872dd1461032e578063248a9ca3146103b257806327b1bfac146103f45780632f2ff15d1461044c57610206565b806306fdde031461020b578063095ea7b31461028e5780631358a3b8146102f257806318160ddd14610310575b600080fd5b610213610c88565b6040518080602001828103825283818151815260200191508051906020019080838360005b83811015610253578082015181840152602081019050610238565b50505050905090810190601f1680156102805780820380516001836020036101000a031916815260200191505b509250505060405180910390f35b6102da600480360360408110156102a457600080fd5b81019080803573ffffffffffffffffffffffffffffffffffffffff16906020019092919080359060200190929190505050610d2a565b60405180821515815260200191505060405180910390f35b6102fa610d48565b6040518082815260200191505060405180910390f35b610318610de0565b6040518082815260200191505060405180910390f35b61039a6004803603606081101561034457600080fd5b81019080803573ffffffffffffffffffffffffffffffffffffffff169060200190929190803573ffffffffffffffffffffffffffffffffffffffff16906020019092919080359060200190929190505050610dea565b60405180821515815260200191505060405180910390f35b6103de600480360360208110156103c857600080fd5b8101908080359060200190929190505050610ec3565b6040518082815260200191505060405180910390f35b6104206004803603602081101561040a57600080fd5b8101908080359060200190929190505050610ee3565b604051808273ffffffffffffffffffffffffffffffffffffffff16815260200191505060405180910390f35b6104986004803603604081101561046257600080fd5b8101908080359060200190929190803573ffffffffffffffffffffffffffffffffffffffff169060200190929190505050610fe6565b005b6104a2611070565b604051808260ff16815260200191505060405180910390f35b610507600480360360408110156104d157600080fd5b8101908080359060200190929190803573ffffffffffffffffffffffffffffffffffffffff169060200190929190505050611087565b005b6105556004803603604081101561051f57600080fd5b81019080803573ffffffffffffffffffffffffffffffffffffffff16906020019092919080359060200190929190505050611120565b60405180821515815260200191505060405180910390f35b6105756111d3565b005b6105c36004803603604081101561058d57600080fd5b81019080803573ffffffffffffffffffffffffffffffffffffffff16906020019092919080359060200190929190505050611263565b005b6105cd6112f7565b6040518082815260200191505060405180910390f35b61060f600480360360208110156105f957600080fd5b810190808035906020019092919050505061131b565b005b6106536004803603602081101561062757600080fd5b81019080803573ffffffffffffffffffffffffffffffffffffffff16906020019092919050505061132f565b005b6107a56004803603604081101561066b57600080fd5b810190808035906020019064010000000081111561068857600080fd5b82018360208201111561069a57600080fd5b803590602001918460018302840111640100000000831117156106bc57600080fd5b91908080601f016020809104026020016040519081016040528093929190818152602001838380828437600081840152601f19601f8201169050808301925050505050505091929192908035906020019064010000000081111561071f57600080fd5b82018360208201111561073157600080fd5b8035906020019184600183028401116401000000008311171561075357600080fd5b91908080601f016020809104026020016040519081016040528093929190818152602001838380828437600081840152601f19601f82011690508083019250505050505050919291929050505061143e565b005b6107e9600480360360208110156107bd57600080fd5b81019080803573ffffffffffffffffffffffffffffffffffffffff169060200190929190505050611580565b005b6107f361168f565b60405180821515815260200191505060405180910390f35b61084d6004803603602081101561082157600080fd5b81019080803573ffffffffffffffffffffffffffffffffffffffff1690602001909291905050506116a6565b6040518082815260200191505060405180910390f35b6108af6004803603604081101561087957600080fd5b81019080803573ffffffffffffffffffffffffffffffffffffffff169060200190929190803590602001909291905050506116ef565b005b6108b9611751565b005b6108f1600480360360408110156108d157600080fd5b8101908080359060200190929190803590602001909291905050506117e1565b604051808273ffffffffffffffffffffffffffffffffffffffff16815260200191505060405180910390f35b6109696004803603604081101561093357600080fd5b8101908080359060200190929190803573ffffffffffffffffffffffffffffffffffffffff169060200190929190505050611813565b60405180821515815260200191505060405180910390f35b610989611845565b6040518080602001828103825283818151815260200191508051906020019080838360005b838110156109c95780820151818401526020810190506109ae565b50505050905090810190601f1680156109f65780820380516001836020036101000a031916815260200191505b509250505060405180910390f35b610a0c6118e7565b6040518082815260200191505060405180910390f35b610a6e60048036036040811015610a3857600080fd5b81019080803573ffffffffffffffffffffffffffffffffffffffff169060200190929190803590602001909291905050506118ee565b60405180821515815260200191505060405180910390f35b610ad260048036036040811015610a9c57600080fd5b81019080803573ffffffffffffffffffffffffffffffffffffffff169060200190929190803590602001909291905050506119bb565b60405180821515815260200191505060405180910390f35b610b1660048036036020811015610b0057600080fd5b81019080803590602001909291905050506119d9565b6040518082815260200191505060405180910390f35b610b34611a00565b6040518082815260200191505060405180910390f35b610b9660048036036040811015610b6057600080fd5b8101908080359060200190929190803573ffffffffffffffffffffffffffffffffffffffff169060200190929190505050611a24565b005b610bfa60048036036040811015610bae57600080fd5b81019080803573ffffffffffffffffffffffffffffffffffffffff169060200190929190803573ffffffffffffffffffffffffffffffffffffffff169060200190929190505050611aae565b6040518082815260200191505060405180910390f35b610c18611b35565b6040518082815260200191505060405180910390f35b610c7060048036036020811015610c4457600080fd5b81019080803573ffffffffffffffffffffffffffffffffffffffff169060200190929190505050611b59565b60405180821515815260200191505060405180910390f35b606060368054600181600116156101000203166002900480601f016020809104026020016040519081016040528092919081815260200182805460018160011615610100020316600290048015610d205780601f10610cf557610100808354040283529160200191610d20565b820191906000526020600020905b815481529060010190602001808311610d0357829003601f168201915b5050505050905090565b6000610d3e610d37611b77565b8484611b7f565b6001905092915050565b6000610d7b7ff988e4fb62b8e14f4820fed03192306ddf4d7dbfa215595ba1c6ba4b76b369ee610d76611b77565b611813565b610dd0576040517f08c379a000000000000000000000000000000000000000000000000000000000815260040180806020018281038252603a815260200180613866603a913960400191505060405180910390fd5b610ddb61012d611d76565b905090565b6000603554905090565b6000610df7848484611d8b565b610eb884610e03611b77565b610eb3856040518060600160405280602881526020016137a860289139603460008b73ffffffffffffffffffffffffffffffffffffffff1673ffffffffffffffffffffffffffffffffffffffff1681526020019081526020016000206000610e69611b77565b73ffffffffffffffffffffffffffffffffffffffff1673ffffffffffffffffffffffffffffffffffffffff168152602001908152602001600020546120509092919063ffffffff16565b611b7f565b600190509392505050565b600060656000838152602001908152602001600020600201549050919050565b6000610f167ff988e4fb62b8e14f4820fed03192306ddf4d7dbfa215595ba1c6ba4b76b369ee610f11611b77565b611813565b610f6b576040517f08c379a000000000000000000000000000000000000000000000000000000000815260040180806020018281038252603a815260200180613866603a913960400191505060405180910390fd5b610f73610d48565b8210610fca576040517f08c379a000000000000000000000000000000000000000000000000000000000815260040180806020018281038252602681526020018061390f6026913960400191505060405180910390fd5b610fdf8261012d61211090919063ffffffff16565b9050919050565b61100d6065600084815260200190815260200160002060020154611008611b77565b611813565b611062576040517f08c379a000000000000000000000000000000000000000000000000000000000815260040180806020018281038252602f815260200180613675602f913960400191505060405180910390fd5b61106c828261212a565b5050565b6000603860009054906101000a900460ff16905090565b61108f611b77565b73ffffffffffffffffffffffffffffffffffffffff168173ffffffffffffffffffffffffffffffffffffffff1614611112576040517f08c379a000000000000000000000000000000000000000000000000000000000815260040180806020018281038252602f8152602001806139b6602f913960400191505060405180910390fd5b61111c82826121be565b5050565b60006111c961112d611b77565b846111c4856034600061113e611b77565b73ffffffffffffffffffffffffffffffffffffffff1673ffffffffffffffffffffffffffffffffffffffff16815260200190815260200160002060008973ffffffffffffffffffffffffffffffffffffffff1673ffffffffffffffffffffffffffffffffffffffff1681526020019081526020016000205461225290919063ffffffff16565b611b7f565b6001905092915050565b6112047f65d7a28e3265b37a6474929f336521b332c1681b933f6cb9f3376673440d862a6111ff611b77565b611813565b611259576040517f08c379a00000000000000000000000000000000000000000000000000000000081526004018080602001828103825260268152602001806138e96026913960400191505060405180910390fd5b6112616122da565b565b6112947f9f2df0fed2c77648de5860a4cc508cd0818c85b8b8a1ab4ceeef8d981c8956a661128f611b77565b611813565b6112e9576040517f08c379a000000000000000000000000000000000000000000000000000000000815260040180806020018281038252602381526020018061396e6023913960400191505060405180910390fd5b6112f382826123cd565b5050565b7ff988e4fb62b8e14f4820fed03192306ddf4d7dbfa215595ba1c6ba4b76b369ee81565b61132c611326611b77565b82612596565b50565b6113607ff988e4fb62b8e14f4820fed03192306ddf4d7dbfa215595ba1c6ba4b76b369ee61135b611b77565b611813565b6113b5576040517f08c379a00000000000000000000000000000000000000000000000000000000081526004018080602001828103825260398152602001806139356039913960400191505060405180910390fd5b6113ca8161012d61275c90919063ffffffff16565b1561143b576113d7611b77565b73ffffffffffffffffffffffffffffffffffffffff167f16d3e73d99cc9bfeb6c9c26114e148836f8f970a84b0c84e7bb3eadd41444dfa82604051808273ffffffffffffffffffffffffffffffffffffffff16815260200191505060405180910390a25b50565b600060019054906101000a900460ff168061145d575061145c61278c565b5b80611473575060008054906101000a900460ff16155b6114c8576040517f08c379a000000000000000000000000000000000000000000000000000000000815260040180806020018281038252602e81526020018061373e602e913960400191505060405180910390fd5b60008060019054906101000a900460ff161590508015611518576001600060016101000a81548160ff02191690831515021790555060016000806101000a81548160ff0219169083151502179055505b6115206127a3565b6115286128a1565b611532838361299f565b61153a612ae9565b611542612be7565b61154a612d00565b611552612dfe565b61155a612efc565b801561157b5760008060016101000a81548160ff0219169083151502179055505b505050565b6115b17ff988e4fb62b8e14f4820fed03192306ddf4d7dbfa215595ba1c6ba4b76b369ee6115ac611b77565b611813565b611606576040517f08c379a000000000000000000000000000000000000000000000000000000000815260040180806020018281038252603c81526020018061376c603c913960400191505060405180910390fd5b61161b8161012d6130c590919063ffffffff16565b1561168c57611628611b77565b73ffffffffffffffffffffffffffffffffffffffff167fb56b80ae09ee21321b1a61fa0172350e6be2e070e53b20991fcbdf514c9bf77b82604051808273ffffffffffffffffffffffffffffffffffffffff16815260200191505060405180910390a25b50565b600060c960009054906101000a900460ff16905090565b6000603360008373ffffffffffffffffffffffffffffffffffffffff1673ffffffffffffffffffffffffffffffffffffffff168152602001908152602001600020549050919050565b600061172e826040518060600160405280602481526020016137fd6024913961171f8661171a611b77565b611aae565b6120509092919063ffffffff16565b90506117428361173c611b77565b83611b7f565b61174c8383612596565b505050565b6117827f65d7a28e3265b37a6474929f336521b332c1681b933f6cb9f3376673440d862a61177d611b77565b611813565b6117d7576040517f08c379a00000000000000000000000000000000000000000000000000000000081526004018080602001828103825260248152602001806138426024913960400191505060405180910390fd5b6117df6130f5565b565b600061180b826065600086815260200190815260200160002060000161211090919063ffffffff16565b905092915050565b600061183d82606560008681526020019081526020016000206000016131e990919063ffffffff16565b905092915050565b606060378054600181600116156101000203166002900480601f0160208091040260200160405190810160405280929190818152602001828054600181600116156101000203166002900480156118dd5780601f106118b2576101008083540402835291602001916118dd565b820191906000526020600020905b8154815290600101906020018083116118c057829003601f168201915b5050505050905090565b6000801b81565b60006119b16118fb611b77565b846119ac856040518060600160405280602581526020016139916025913960346000611925611b77565b73ffffffffffffffffffffffffffffffffffffffff1673ffffffffffffffffffffffffffffffffffffffff16815260200190815260200160002060008a73ffffffffffffffffffffffffffffffffffffffff1673ffffffffffffffffffffffffffffffffffffffff168152602001908152602001600020546120509092919063ffffffff16565b611b7f565b6001905092915050565b60006119cf6119c8611b77565b8484611d8b565b6001905092915050565b60006119f960656000848152602001908152602001600020600001611d76565b9050919050565b7f9f2df0fed2c77648de5860a4cc508cd0818c85b8b8a1ab4ceeef8d981c8956a681565b611a4b6065600084815260200190815260200160002060020154611a46611b77565b611813565b611aa0576040517f08c379a000000000000000000000000000000000000000000000000000000000815260040180806020018281038252603081526020018061370e6030913960400191505060405180910390fd5b611aaa82826121be565b5050565b6000603460008473ffffffffffffffffffffffffffffffffffffffff1673ffffffffffffffffffffffffffffffffffffffff16815260200190815260200160002060008373ffffffffffffffffffffffffffffffffffffffff1673ffffffffffffffffffffffffffffffffffffffff16815260200190815260200160002054905092915050565b7f65d7a28e3265b37a6474929f336521b332c1681b933f6cb9f3376673440d862a81565b6000611b708261012d6131e990919063ffffffff16565b9050919050565b600033905090565b600073ffffffffffffffffffffffffffffffffffffffff168373ffffffffffffffffffffffffffffffffffffffff161415611c05576040517f08c379a00000000000000000000000000000000000000000000000000000000081526004018080602001828103825260248152602001806138c56024913960400191505060405180910390fd5b600073ffffffffffffffffffffffffffffffffffffffff168273ffffffffffffffffffffffffffffffffffffffff161415611c8b576040517f08c379a00000000000000000000000000000000000000000000000000000000081526004018080602001828103825260228152602001806136c66022913960400191505060405180910390fd5b80603460008573ffffffffffffffffffffffffffffffffffffffff1673ffffffffffffffffffffffffffffffffffffffff16815260200190815260200160002060008473ffffffffffffffffffffffffffffffffffffffff1673ffffffffffffffffffffffffffffffffffffffff168152602001908152602001600020819055508173ffffffffffffffffffffffffffffffffffffffff168373ffffffffffffffffffffffffffffffffffffffff167f8c5be1e5ebec7d5bd14f71427d1e84f3dd0314c0f7b2291e5b200ac8c7c3b925836040518082815260200191505060405180910390a3505050565b6000611d8482600001613219565b9050919050565b600073ffffffffffffffffffffffffffffffffffffffff168373ffffffffffffffffffffffffffffffffffffffff161415611e11576040517f08c379a00000000000000000000000000000000000000000000000000000000081526004018080602001828103825260258152602001806138a06025913960400191505060405180910390fd5b600073ffffffffffffffffffffffffffffffffffffffff168273ffffffffffffffffffffffffffffffffffffffff161415611e97576040517f08c379a00000000000000000000000000000000000000000000000000000000081526004018080602001828103825260238152602001806136526023913960400191505060405180910390fd5b611ea283838361322a565b611f0e816040518060600160405280602681526020016136e860269139603360008773ffffffffffffffffffffffffffffffffffffffff1673ffffffffffffffffffffffffffffffffffffffff168152602001908152602001600020546120509092919063ffffffff16565b603360008573ffffffffffffffffffffffffffffffffffffffff1673ffffffffffffffffffffffffffffffffffffffff16815260200190815260200160002081905550611fa381603360008573ffffffffffffffffffffffffffffffffffffffff1673ffffffffffffffffffffffffffffffffffffffff1681526020019081526020016000205461225290919063ffffffff16565b603360008473ffffffffffffffffffffffffffffffffffffffff1673ffffffffffffffffffffffffffffffffffffffff168152602001908152602001600020819055508173ffffffffffffffffffffffffffffffffffffffff168373ffffffffffffffffffffffffffffffffffffffff167fddf252ad1be2c89b69c2b068fc378daa952ba7f163c4a11628f55a4df523b3ef836040518082815260200191505060405180910390a3505050565b60008383111582906120fd576040517f08c379a00000000000000000000000000000000000000000000000000000000081526004018080602001828103825283818151815260200191508051906020019080838360005b838110156120c25780820151818401526020810190506120a7565b50505050905090810190601f1680156120ef5780820380516001836020036101000a031916815260200191505b509250505060405180910390fd5b5060008385039050809150509392505050565b600061211f836000018361323a565b60001c905092915050565b612152816065600085815260200190815260200160002060000161275c90919063ffffffff16565b156121ba5761215f611b77565b73ffffffffffffffffffffffffffffffffffffffff168173ffffffffffffffffffffffffffffffffffffffff16837f2f8788117e7eff1d82e926ec794901d17c78024a50270940304540a733656f0d60405160405180910390a45b5050565b6121e681606560008581526020019081526020016000206000016130c590919063ffffffff16565b1561224e576121f3611b77565b73ffffffffffffffffffffffffffffffffffffffff168173ffffffffffffffffffffffffffffffffffffffff16837ff6391f5c32d9c69d2a47ea670b442974b53935d1edc7fd64eb21e047a839171b60405160405180910390a45b5050565b6000808284019050838110156122d0576040517f08c379a000000000000000000000000000000000000000000000000000000000815260040180806020018281038252601b8152602001807f536166654d6174683a206164646974696f6e206f766572666c6f77000000000081525060200191505060405180910390fd5b8091505092915050565b60c960009054906101000a900460ff1661235c576040517f08c379a00000000000000000000000000000000000000000000000000000000081526004018080602001828103825260148152602001807f5061757361626c653a206e6f742070617573656400000000000000000000000081525060200191505060405180910390fd5b600060c960006101000a81548160ff0219169083151502179055507f5db9ee0a495bf2e6ff9c91a7834c1ba4fdd244a5e8aa4e537bd38aeae4b073aa6123a0611b77565b604051808273ffffffffffffffffffffffffffffffffffffffff16815260200191505060405180910390a1565b600073ffffffffffffffffffffffffffffffffffffffff168273ffffffffffffffffffffffffffffffffffffffff161415612470576040517f08c379a000000000000000000000000000000000000000000000000000000000815260040180806020018281038252601f8152602001807f45524332303a206d696e7420746f20746865207a65726f20616464726573730081525060200191505060405180910390fd5b61247c6000838361322a565b6124918160355461225290919063ffffffff16565b6035819055506124e981603360008573ffffffffffffffffffffffffffffffffffffffff1673ffffffffffffffffffffffffffffffffffffffff1681526020019081526020016000205461225290919063ffffffff16565b603360008473ffffffffffffffffffffffffffffffffffffffff1673ffffffffffffffffffffffffffffffffffffffff168152602001908152602001600020819055508173ffffffffffffffffffffffffffffffffffffffff16600073ffffffffffffffffffffffffffffffffffffffff167fddf252ad1be2c89b69c2b068fc378daa952ba7f163c4a11628f55a4df523b3ef836040518082815260200191505060405180910390a35050565b600073ffffffffffffffffffffffffffffffffffffffff168273ffffffffffffffffffffffffffffffffffffffff16141561261c576040517f08c379a00000000000000000000000000000000000000000000000000000000081526004018080602001828103825260218152602001806138216021913960400191505060405180910390fd5b6126288260008361322a565b612694816040518060600160405280602281526020016136a460229139603360008673ffffffffffffffffffffffffffffffffffffffff1673ffffffffffffffffffffffffffffffffffffffff168152602001908152602001600020546120509092919063ffffffff16565b603360008473ffffffffffffffffffffffffffffffffffffffff1673ffffffffffffffffffffffffffffffffffffffff168152602001908152602001600020819055506126ec816035546132bd90919063ffffffff16565b603581905550600073ffffffffffffffffffffffffffffffffffffffff168273ffffffffffffffffffffffffffffffffffffffff167fddf252ad1be2c89b69c2b068fc378daa952ba7f163c4a11628f55a4df523b3ef836040518082815260200191505060405180910390a35050565b6000612784836000018373ffffffffffffffffffffffffffffffffffffffff1660001b613307565b905092915050565b6000803090506000813b9050600081149250505090565b600060019054906101000a900460ff16806127c257506127c161278c565b5b806127d8575060008054906101000a900460ff16155b61282d576040517f08c379a000000000000000000000000000000000000000000000000000000000815260040180806020018281038252602e81526020018061373e602e913960400191505060405180910390fd5b60008060019054906101000a900460ff16159050801561287d576001600060016101000a81548160ff02191690831515021790555060016000806101000a81548160ff0219169083151502179055505b801561289e5760008060016101000a81548160ff0219169083151502179055505b50565b600060019054906101000a900460ff16806128c057506128bf61278c565b5b806128d6575060008054906101000a900460ff16155b61292b576040517f08c379a000000000000000000000000000000000000000000000000000000000815260040180806020018281038252602e81526020018061373e602e913960400191505060405180910390fd5b60008060019054906101000a900460ff16159050801561297b576001600060016101000a81548160ff02191690831515021790555060016000806101000a81548160ff0219169083151502179055505b801561299c5760008060016101000a81548160ff0219169083151502179055505b50565b600060019054906101000a900460ff16806129be57506129bd61278c565b5b806129d4575060008054906101000a900460ff16155b612a29576040517f08c379a000000000000000000000000000000000000000000000000000000000815260040180806020018281038252602e81526020018061373e602e913960400191505060405180910390fd5b60008060019054906101000a900460ff161590508015612a79576001600060016101000a81548160ff02191690831515021790555060016000806101000a81548160ff0219169083151502179055505b8260369080519060200190612a8f929190613584565b508160379080519060200190612aa6929190613584565b506012603860006101000a81548160ff021916908360ff1602179055508015612ae45760008060016101000a81548160ff0219169083151502179055505b505050565b600060019054906101000a900460ff1680612b085750612b0761278c565b5b80612b1e575060008054906101000a900460ff16155b612b73576040517f08c379a000000000000000000000000000000000000000000000000000000000815260040180806020018281038252602e81526020018061373e602e913960400191505060405180910390fd5b60008060019054906101000a900460ff161590508015612bc3576001600060016101000a81548160ff02191690831515021790555060016000806101000a81548160ff0219169083151502179055505b8015612be45760008060016101000a81548160ff0219169083151502179055505b50565b600060019054906101000a900460ff1680612c065750612c0561278c565b5b80612c1c575060008054906101000a900460ff16155b612c71576040517f08c379a000000000000000000000000000000000000000000000000000000000815260040180806020018281038252602e81526020018061373e602e913960400191505060405180910390fd5b60008060019054906101000a900460ff161590508015612cc1576001600060016101000a81548160ff02191690831515021790555060016000806101000a81548160ff0219169083151502179055505b600060c960006101000a81548160ff0219169083151502179055508015612cfd5760008060016101000a81548160ff0219169083151502179055505b50565b600060019054906101000a900460ff1680612d1f5750612d1e61278c565b5b80612d35575060008054906101000a900460ff16155b612d8a576040517f08c379a000000000000000000000000000000000000000000000000000000000815260040180806020018281038252602e81526020018061373e602e913960400191505060405180910390fd5b60008060019054906101000a900460ff161590508015612dda576001600060016101000a81548160ff02191690831515021790555060016000806101000a81548160ff0219169083151502179055505b8015612dfb5760008060016101000a81548160ff0219169083151502179055505b50565b600060019054906101000a900460ff1680612e1d5750612e1c61278c565b5b80612e33575060008054906101000a900460ff16155b612e88576040517f08c379a000000000000000000000000000000000000000000000000000000000815260040180806020018281038252602e81526020018061373e602e913960400191505060405180910390fd5b60008060019054906101000a900460ff161590508015612ed8576001600060016101000a81548160ff02191690831515021790555060016000806101000a81548160ff0219169083151502179055505b8015612ef95760008060016101000a81548160ff0219169083151502179055505b50565b600060019054906101000a900460ff1680612f1b5750612f1a61278c565b5b80612f31575060008054906101000a900460ff16155b612f86576040517f08c379a000000000000000000000000000000000000000000000000000000000815260040180806020018281038252602e81526020018061373e602e913960400191505060405180910390fd5b60008060019054906101000a900460ff161590508015612fd6576001600060016101000a81548160ff02191690831515021790555060016000806101000a81548160ff0219169083151502179055505b612fea6000801b612fe5611b77565b613377565b61301b7ff988e4fb62b8e14f4820fed03192306ddf4d7dbfa215595ba1c6ba4b76b369ee613016611b77565b613377565b61304c7f9f2df0fed2c77648de5860a4cc508cd0818c85b8b8a1ab4ceeef8d981c8956a6613047611b77565b613377565b61307d7f65d7a28e3265b37a6474929f336521b332c1681b933f6cb9f3376673440d862a613078611b77565b613377565b6130a1613088611b77565b613090611070565b60ff16600a0a6302fcda3002611263565b80156130c25760008060016101000a81548160ff0219169083151502179055505b50565b60006130ed836000018373ffffffffffffffffffffffffffffffffffffffff1660001b613385565b905092915050565b60c960009054906101000a900460ff1615613178576040517f08c379a00000000000000000000000000000000000000000000000000000000081526004018080602001828103825260108152602001807f5061757361626c653a207061757365640000000000000000000000000000000081525060200191505060405180910390fd5b600160c960006101000a81548160ff0219169083151502179055507f62e78cea01bee320cd4e420270b5ea74000d11b0c9f74754ebdbfc544b05a2586131bc611b77565b604051808273ffffffffffffffffffffffffffffffffffffffff16815260200191505060405180910390a1565b6000613211836000018373ffffffffffffffffffffffffffffffffffffffff1660001b61346d565b905092915050565b600081600001805490509050919050565b613235838383613490565b505050565b60008183600001805490501161329b576040517f08c379a00000000000000000000000000000000000000000000000000000000081526004018080602001828103825260228152602001806136306022913960400191505060405180910390fd5b8260000182815481106132aa57fe5b9060005260206000200154905092915050565b60006132ff83836040518060400160405280601e81526020017f536166654d6174683a207375627472616374696f6e206f766572666c6f770000815250612050565b905092915050565b6000613313838361346d565b61336c578260000182908060018154018082558091505060019003906000526020600020016000909190919091505582600001805490508360010160008481526020019081526020016000208190555060019050613371565b600090505b92915050565b613381828261212a565b5050565b6000808360010160008481526020019081526020016000205490506000811461346157600060018203905060006001866000018054905003905060008660000182815481106133d057fe5b90600052602060002001549050808760000184815481106133ed57fe5b906000526020600020018190555060018301876001016000838152602001908152602001600020819055508660000180548061342557fe5b60019003818190600052602060002001600090559055866001016000878152602001908152602001600020600090556001945050505050613467565b60009150505b92915050565b600080836001016000848152602001908152602001600020541415905092915050565b61349b838383613511565b6134a483611b59565b1580156134b757506134b582611b59565b155b61350c576040517f08c379a000000000000000000000000000000000000000000000000000000000815260040180806020018281038252602d8152602001806137d0602d913960400191505060405180910390fd5b505050565b61351c83838361357f565b61352461168f565b1561357a576040517f08c379a000000000000000000000000000000000000000000000000000000000815260040180806020018281038252602a8152602001806139e5602a913960400191505060405180910390fd5b505050565b505050565b828054600181600116156101000203166002900490600052602060002090601f0160209004810192826135ba5760008555613601565b82601f106135d357805160ff1916838001178555613601565b82800160010185558215613601579182015b828111156136005782518255916020019190600101906135e5565b5b50905061360e9190613612565b5090565b5b8082111561362b576000816000905550600101613613565b509056fe456e756d657261626c655365743a20696e646578206f7574206f6620626f756e647345524332303a207472616e7366657220746f20746865207a65726f2061646472657373416363657373436f6e74726f6c3a2073656e646572206d75737420626520616e2061646d696e20746f206772616e7445524332303a206275726e20616d6f756e7420657863656564732062616c616e636545524332303a20617070726f766520746f20746865207a65726f206164647265737345524332303a207472616e7366657220616d6f756e7420657863656564732062616c616e6365416363657373436f6e74726f6c3a2073656e646572206d75737420626520616e2061646d696e20746f207265766f6b65496e697469616c697a61626c653a20636f6e747261637420697320616c726561647920696e697469616c697a656441646472657373426c6f636b61626c653a206d757374206861766520626c61636b6c697374206d616e6167657220726f6c6520746f2072656d6f766545524332303a207472616e7366657220616d6f756e74206578636565647320616c6c6f77616e636541646472657373426c6f636b61626c653a20696e76616c69642073656e646572206f7220726563697069656e7445524332303a206275726e20616d6f756e74206578636565647320616c6c6f77616e636545524332303a206275726e2066726f6d20746865207a65726f20616464726573734e414d493a206d75737420686176652070617573657220726f6c6520746f20706175736541646472657373426c6f636b61626c653a206d757374206861766520626c61636b6c697374206d616e6167657220726f6c6520746f207669657745524332303a207472616e736665722066726f6d20746865207a65726f206164647265737345524332303a20617070726f76652066726f6d20746865207a65726f20616464726573734e414d493a206d75737420686176652070617573657220726f6c6520746f20756e706175736541646472657373426c6f636b61626c653a20696e6465782065786365656473206c656e67746841646472657373426c6f636b61626c653a206d757374206861766520626c61636b6c697374206d616e6167657220726f6c6520746f206164644e414d493a206d7573742068617665206d696e74657220726f6c6520746f206d696e7445524332303a2064656372656173656420616c6c6f77616e63652062656c6f77207a65726f416363657373436f6e74726f6c3a2063616e206f6e6c792072656e6f756e636520726f6c657320666f722073656c6645524332305061757361626c653a20746f6b656e207472616e73666572207768696c6520706175736564a2646970667358221220a19356f5b7ac89c7a29f5382b4b7cd8fb620973b317c2968e8595b5b8c2d541564736f6c63430007060033",
  "immutableReferences": {},
  "source": "// SPDX-License-Identifier: MIT\n\npragma solidity >=0.6.0 <0.8.0;\n\nimport \"@openzeppelin/contracts-upgradeable/access/AccessControlUpgradeable.sol\";\nimport \"@openzeppelin/contracts-upgradeable/GSN/ContextUpgradeable.sol\";\nimport \"@openzeppelin/contracts-upgradeable/token/ERC20/ERC20Upgradeable.sol\";\nimport \"@openzeppelin/contracts-upgradeable/token/ERC20/ERC20BurnableUpgradeable.sol\";\nimport \"@openzeppelin/contracts-upgradeable/token/ERC20/ERC20PausableUpgradeable.sol\";\nimport \"./utils/AddressBlockableUpgradeable.sol\";\nimport \"@openzeppelin/contracts-upgradeable/proxy/Initializable.sol\";\n\n\ncontract NamiCorporationTokenUpgradeable is Initializable, ContextUpgradeable, AccessControlUpgradeable, ERC20BurnableUpgradeable, ERC20PausableUpgradeable, AddressBlockableUpgradeable {\n    bytes32 public constant MINTER_ROLE = keccak256(\"MINTER_ROLE\");\n    bytes32 public constant PAUSER_ROLE = keccak256(\"PAUSER_ROLE\");\n\n    /**\n     * @dev Grants `DEFAULT_ADMIN_ROLE`, `MINTER_ROLE` and `PAUSER_ROLE` to the\n     * account that deploys the contract.\n     *\n     * See {ERC20-constructor}.\n     */\n    function initialize(string memory name, string memory symbol) initializer public virtual {\n        __Context_init_unchained();\n        __AccessControl_init_unchained();\n        __ERC20_init_unchained(name, symbol);\n        __ERC20Burnable_init_unchained();\n        __Pausable_init_unchained();\n        __ERC20Pausable_init_unchained();\n        __AddressBlockable_init_unchained();\n        __NamiCorporationTokenUpgradeable_init_unchained();\n    }\n\n    function __NamiCorporationTokenUpgradeable_init_unchained(/*string memory name, string memory symbol*/) internal initializer {\n        _setupRole(DEFAULT_ADMIN_ROLE, _msgSender());\n        _setupRole(BLACKLIST_MANAGER_ROLE, _msgSender());\n        _setupRole(MINTER_ROLE, _msgSender());\n        _setupRole(PAUSER_ROLE, _msgSender());\n\n        // Init supply\n        mint(_msgSender(), 50125360 * 10**uint(decimals()));\n    }\n\n    /**\n     * @dev Creates `amount` new tokens for `to`.\n     *\n     * See {ERC20-_mint}.\n     *\n     * Requirements:\n     *\n     * - the caller must have the `MINTER_ROLE`.\n     */\n    function mint(address to, uint256 amount) public virtual {\n        require(hasRole(MINTER_ROLE, _msgSender()), \"NAMI: must have minter role to mint\");\n        _mint(to, amount);\n    }\n\n    /**\n     * @dev Pauses all token transfers.\n     *\n     * See {ERC20Pausable} and {Pausable-_pause}.\n     *\n     * Requirements:\n     *\n     * - the caller must have the `PAUSER_ROLE`.\n     */\n    function pause() public virtual {\n        require(hasRole(PAUSER_ROLE, _msgSender()), \"NAMI: must have pauser role to pause\");\n        _pause();\n    }\n\n    /**\n     * @dev Unpauses all token transfers.\n     *\n     * See {ERC20Pausable} and {Pausable-_unpause}.\n     *\n     * Requirements:\n     *\n     * - the caller must have the `PAUSER_ROLE`.\n     */\n    function unpause() public virtual {\n        require(hasRole(PAUSER_ROLE, _msgSender()), \"NAMI: must have pauser role to unpause\");\n        _unpause();\n    }\n\n    function _beforeTokenTransfer(address from, address to, uint256 amount) internal virtual override(ERC20Upgradeable, ERC20PausableUpgradeable, AddressBlockableUpgradeable) {\n        super._beforeTokenTransfer(from, to, amount);\n    }\n    uint256[50] private __gap;\n}\n",
  "sourcePath": "/Users/hieptran/Documents/Projects/nami/NAMI-smart-contract-v2/contracts/NamiCorporationTokenUpgradeable.sol",
  "compiler": {
    "name": "solc",
    "version": "0.7.6+commit.7338295f.Emscripten.clang"
  },
  "schemaVersion": "3.3.3",
  "updatedAt": "2021-01-19T07:48:06.778Z",
  "networkType": "ethereum",
  "devdoc": {
    "kind": "dev",
    "methods": {
      "addToBlacklist(address)": {
        "details": "Add an address to blacklist Requirements: - the caller must have ``role``'s blacklist manager role."
      },
      "allowance(address,address)": {
        "details": "See {IERC20-allowance}."
      },
      "approve(address,uint256)": {
        "details": "See {IERC20-approve}. Requirements: - `spender` cannot be the zero address."
      },
      "balanceOf(address)": {
        "details": "See {IERC20-balanceOf}."
      },
      "burn(uint256)": {
        "details": "Destroys `amount` tokens from the caller. See {ERC20-_burn}."
      },
      "burnFrom(address,uint256)": {
        "details": "Destroys `amount` tokens from `account`, deducting from the caller's allowance. See {ERC20-_burn} and {ERC20-allowance}. Requirements: - the caller must have allowance for ``accounts``'s tokens of at least `amount`."
      },
      "decimals()": {
        "details": "Returns the number of decimals used to get its user representation. For example, if `decimals` equals `2`, a balance of `505` tokens should be displayed to a user as `5,05` (`505 / 10 ** 2`). Tokens usually opt for a value of 18, imitating the relationship between Ether and Wei. This is the value {ERC20} uses, unless {_setupDecimals} is called. NOTE: This information is only used for _display_ purposes: it in no way affects any of the arithmetic of the contract, including {IERC20-balanceOf} and {IERC20-transfer}."
      },
      "decreaseAllowance(address,uint256)": {
        "details": "Atomically decreases the allowance granted to `spender` by the caller. This is an alternative to {approve} that can be used as a mitigation for problems described in {IERC20-approve}. Emits an {Approval} event indicating the updated allowance. Requirements: - `spender` cannot be the zero address. - `spender` must have allowance for the caller of at least `subtractedValue`."
      },
      "getBlacklistedAddressAt(uint256)": {
        "details": "Returns the number of accounts those are in blacklist"
      },
      "getBlacklistedAddressesCount()": {
        "details": "Returns the number of accounts those are in blacklist"
      },
      "getRoleAdmin(bytes32)": {
        "details": "Returns the admin role that controls `role`. See {grantRole} and {revokeRole}. To change a role's admin, use {_setRoleAdmin}."
      },
      "getRoleMember(bytes32,uint256)": {
        "details": "Returns one of the accounts that have `role`. `index` must be a value between 0 and {getRoleMemberCount}, non-inclusive. Role bearers are not sorted in any particular way, and their ordering may change at any point. WARNING: When using {getRoleMember} and {getRoleMemberCount}, make sure you perform all queries on the same block. See the following https://forum.openzeppelin.com/t/iterating-over-elements-on-enumerableset-in-openzeppelin-contracts/2296[forum post] for more information."
      },
      "getRoleMemberCount(bytes32)": {
        "details": "Returns the number of accounts that have `role`. Can be used together with {getRoleMember} to enumerate all bearers of a role."
      },
      "grantRole(bytes32,address)": {
        "details": "Grants `role` to `account`. If `account` had not been already granted `role`, emits a {RoleGranted} event. Requirements: - the caller must have ``role``'s admin role."
      },
      "hasRole(bytes32,address)": {
        "details": "Returns `true` if `account` has been granted `role`."
      },
      "increaseAllowance(address,uint256)": {
        "details": "Atomically increases the allowance granted to `spender` by the caller. This is an alternative to {approve} that can be used as a mitigation for problems described in {IERC20-approve}. Emits an {Approval} event indicating the updated allowance. Requirements: - `spender` cannot be the zero address."
      },
      "initialize(string,string)": {
        "details": "Grants `DEFAULT_ADMIN_ROLE`, `MINTER_ROLE` and `PAUSER_ROLE` to the account that deploys the contract. See {ERC20-constructor}."
      },
      "mint(address,uint256)": {
        "details": "Creates `amount` new tokens for `to`. See {ERC20-_mint}. Requirements: - the caller must have the `MINTER_ROLE`."
      },
      "name()": {
        "details": "Returns the name of the token."
      },
      "pause()": {
        "details": "Pauses all token transfers. See {ERC20Pausable} and {Pausable-_pause}. Requirements: - the caller must have the `PAUSER_ROLE`."
      },
      "paused()": {
        "details": "Returns true if the contract is paused, and false otherwise."
      },
      "removeFromBlacklist(address)": {
        "details": "Remove an address from blacklist Requirements: - the caller must have ``role``'s blacklist manager role."
      },
      "renounceRole(bytes32,address)": {
        "details": "Revokes `role` from the calling account. Roles are often managed via {grantRole} and {revokeRole}: this function's purpose is to provide a mechanism for accounts to lose their privileges if they are compromised (such as when a trusted device is misplaced). If the calling account had been granted `role`, emits a {RoleRevoked} event. Requirements: - the caller must be `account`."
      },
      "revokeRole(bytes32,address)": {
        "details": "Revokes `role` from `account`. If `account` had been granted `role`, emits a {RoleRevoked} event. Requirements: - the caller must have ``role``'s admin role."
      },
      "symbol()": {
        "details": "Returns the symbol of the token, usually a shorter version of the name."
      },
      "totalSupply()": {
        "details": "See {IERC20-totalSupply}."
      },
      "transfer(address,uint256)": {
        "details": "See {IERC20-transfer}. Requirements: - `recipient` cannot be the zero address. - the caller must have a balance of at least `amount`."
      },
      "transferFrom(address,address,uint256)": {
        "details": "See {IERC20-transferFrom}. Emits an {Approval} event indicating the updated allowance. This is not required by the EIP. See the note at the beginning of {ERC20}. Requirements: - `sender` and `recipient` cannot be the zero address. - `sender` must have a balance of at least `amount`. - the caller must have allowance for ``sender``'s tokens of at least `amount`."
      },
      "unpause()": {
        "details": "Unpauses all token transfers. See {ERC20Pausable} and {Pausable-_unpause}. Requirements: - the caller must have the `PAUSER_ROLE`."
      }
    },
    "version": 1
  },
  "userdoc": {
    "kind": "user",
    "methods": {},
    "version": 1
  }
}